:10000000B8C00000D3C00000D1C00000CFC00000C5
:10001000CDC00000CBC00000C9C00000C7C00000B8
:10002000C5C00000C3C00000A7C40000BFC00000DE
:10003000BDC00000BBC00000B9C00000B7C00000D8
:10004000B5C00000B3C00000B1C00000AFC00000E8
:10005000ADC00000ABC00000A9C00000A7C00000F8
:10006000A5C00000A3C00000A1C000009FC0000008
:100070009DC000009BC0000099C0000097C0000018
:1000800095C0000093C0000091C000008FC0000028
:100090008DC000008BC00000240350004F004B00B7
:1000A0004B0045004E00200043004F004E0054001E
:1000B00052004F004C004C004500520000001C0351
:1000C00048004F0052004900200043004F002E001E
:1000D0002C004C00540044002E00000004030904CE
:1000E0000902290001010080FA090400000203004E
:1000F00000000921110100012256000705020340FA
:100100000005070581034000051201000200000000
:10011000400D0F920000010102000105010905A137
:1001200001150025013500450175019510050919D6
:10013000012910810205012507463B01750495013F
:1001400065140939814265009501810126FF004649
:10015000FF0009300931093209357508950481021B
:100160000600FF0920950181020A212695089102C7
:10017000C00011241FBECFEFD0E2DEBFCDBF13E021
:10018000A0E0B1E0ECEFFDE000E00BBF02C00790A3
:100190000D92AA3FB107D9F724E0AAEFB3E001C05E
:1001A0001D92AE31B207E1F76CD126C629CF84B7D4
:1001B000877F84BF0FB6F894A8958091600088610E
:1001C00080936000109260000FBE80E890E00FB650
:1001D000F89480936100909361000FBEB2C30895BC
:1001E000089542E360EC82E0E3D242E361EC81E017
:1001F000DFC20895DC0198E0FD01892F11928A95F4
:10020000E9F780E813968C93139714968C931497C0
:1002100015968C93159716968C93169712969C9319
:1002200012978091060490910704181619068CF411
:1002300088E0E9E0F4E001900D928A95E1F7809181
:100240000604909107040197909307048093060495
:100250001BC080910804833029F188F48130A9F013
:100260008230F1F08823C1F088E0FD01A9E0B4E01C
:1002700001900D928A95E1F782E090E0E5CF84301D
:1002800009F4B5C0853081F708951092FF031092EC
:10029000FE0311961C921E9282E080930804E4CF24
:1002A00083E0FBCF8091FE039091FF03FC01EE0FF2
:1002B000FF1FE80FF91FE050FF4F8081873009F4DE
:1002C0007EC008F059C0833009F474C008F049C0FA
:1002D000813009F46AC0823009F481C0882309F4AE
:1002E00060C02091FC033091FD032F5F3F4F30939E
:1002F000FD032093FC038091FE039091FF03FC011A
:10030000EE0FFF1FE80FF91FE050FF4F41815281B0
:100310004217530748F401969093FF038093FE031E
:100320001092FD031092FC038091FE039091FF0355
:100330008E3F91050CF498CF87E090E09093FF03F7
:100340008093FE031092FD031092FC0382E08093E1
:10035000080480E813968C93139714968C93149743
:1003600083CF843079F1863009F0BBCF84E090E010
:1003700011969C938E93B5CF8C3069F150F48A30EE
:1003800021F18B3029F1893009F0ABCF80E290E088
:10039000EFCF8D3041F18F3009F0A3CF80E390E0B3
:1003A000E7CF14961C9214979CCF8FEF14968C93E2
:1003B000149797CF8FEF13968C93139792CF82E079
:1003C00090E0D6CF88E090E0D3CF80E092E0D0CF2D
:1003D00080E091E0CDCF8FEF14968C931497139615
:1003E0001C9213977ECF14961C921497CFCF85E062
:1003F00054CFCF93DF93CDB7DEB728970FB6F894DD
:10040000DEBF0FBECDBF80911504843089F582E038
:100410008093E9008091E80082FF12C08091E8009B
:1004200085FF09C050E040E067E070E0CE01019632
:10043000BCD08111F7CF8091E8008B778093E800E2
:1004400081E08093E9008091E80080FF11C0CE0137
:100450000196D0DE50E040E068E070E0CE01019609
:1004600056D08111F7CF8091E8008E778093E80015
:1004700028960FB6F894DEBF0FBECDBFDF91CF91A7
:10048000089595DE7894B5DF9DD4FDCF9C01DA0107
:10049000832F992783309105B9F060F4813091055D
:1004A00061F10297E1F489E290E020EE30E02D93D3
:1004B0003C9308958132910529F1829781F486E574
:1004C00090E02BE131E0F3CFC9019927213061F0B1
:1004D0008230910579F0ECEDF0E0892B39F090E075
:1004E00080E030E020E0E3CFEEEBF0E0849190E0BC
:1004F0009F01DDCFE8E9F0E0F9CF82E190E029E06B
:1005000031E0D5CF89E090E022EF30E0D0CFAF925C
:10051000BF92CF92DF92FF920F931F93CF93DF93FF
:100520006C01EB018A0197D1F82E811124C00115CD
:10053000110539F0F80180819181C81BD90BC80ED3
:10054000D91EB12CA12C2097B1F08091E80085FD37
:1005500022C08091E8008E778093E80033D40115A3
:100560001105A1F0F80180819181A80EB91EB18218
:10057000A08285E0F82E8F2DDF91CF911F910F91F2
:10058000FF90DF90CF90BF90AF90089564D1882303
:10059000D1F2F82EF0CFF60181916F018093F10036
:1005A0002197FFEFAF1ABF0ACECFAF92BF92CF9283
:1005B000DF92FF920F931F93CF93DF936C01EB01B8
:1005C0008A0149D1F82E811124C00115110539F095
:1005D000F80180819181C81BD90BC80ED91EB12C9E
:1005E000A12C2097B1F08091E80085FD22C0809178
:1005F000E8008B778093E800E5D301151105A1F0A1
:10060000F80180819181A80EB91EB182A08285E097
:10061000F82E8F2DDF91CF911F910F91FF90DF90DA
:10062000CF90BF90AF90089516D18823D1F2F82EC5
:10063000F0CF8091F100F60181936F012197FFEFD8
:10064000AF1ABF0ACECFFC01CB0120911C04309120
:100650001D042617370790F0009729F42091E80031
:100660002E772093E80040E0009751F4411108C034
:100670008091E80082FF31C080E00895C901F3CF86
:10068000209115042223A9F12530A9F12091E80039
:1006900023FD2DC02091E80022FDEACF2091E80043
:1006A00020FFE2CF2091F2003091F300009719F083
:1006B0002034310558F041E02034310509F040E0A4
:1006C0002091E8002E772093E800CECF419140930F
:1006D000F10001972F5F3F4FE9CF809115048823E8
:1006E00041F0853041F08091E80083FFC1CF81E087
:1006F000089582E0089583E00895FC01CB012091E4
:100700001C0430911D042617370790F0009729F438
:100710002091E8002E772093E80040E0009751F404
:10072000411108C08091E80082FF32C080E0089546
:10073000C901F3CF209115042223B1F12530B1F185
:100740002091E80023FD2EC02091E80022FDEACF91
:100750002091E80020FFE2CF2091F2003091F300D9
:10076000009719F02034310558F041E0203431056C
:1007700009F040E02091E8002E772093E800CECFEA
:1007800044914093F100319601972F5F3F4FE8CF9E
:1007900080911504882341F0853041F08091E80074
:1007A00083FFC0CF81E0089582E0089583E008953B
:1007B000982F973028F08F708093E90081E008959A
:1007C0009093E900242F762F50E0981731F0709124
:1007D000EC002091ED005091F00021FD02C09F5FE0
:1007E000E8CF3091EB003E7F3093EB003091ED008D
:1007F0003D7F3093ED003091EB0031603093EB00A2
:100800007093EC002093ED005093F0002091EE00E7
:1008100027FDE5CF80E008958091160487FF13C07F
:100820008091E80082FF06C08091E8008B7780937A
:10083000E80004C0809115048111F2CF08958091E1
:1008400015048823D9F38091E80080FFF8CF8091C8
:10085000E8008E77ECCF2091E4003091E50095E63A
:10086000A9012091EC00822F817020FF06C08091A9
:10087000E80080FF06C080E008952091E80022FD96
:100880001AC080911504882389F0853089F0809101
:10089000EB0085FD0FC02091E4003091E500421788
:1008A0005307F9F29150E1F684E0089582E008954B
:1008B00083E0089581E008950F931F93CF93DF9312
:1008C0004ED055D0C8EDD0E088818F77888388815D
:1008D0008068888388818F7D8883E7EDF0E0808160
:1008E0008068808319BC1092150410921104109234
:1008F00013041092120400EE10E0F80180818B7F47
:10090000808388818160888342E360E080E050DFFB
:10091000E1EEF0E080818E7F8083E2EEF0E0808186
:1009200081608083808188608083F80180818E7FF0
:100930008083888180618883DF91CF911F910F919F
:100940000895E8EDF0E080818F7E8083E7EDF0E0B0
:1009500080818160808381E080931404ADCFE8EDD5
:10096000F0E080818C7F80831092E20008951092E5
:10097000DA001092E10008951F920F920FB60F92C5
:1009800011240BB60F922F933F934F935F936F9366
:100990007F938F939F93AF93BF93EF93FF93809138
:1009A000E10082FF0AC08091E20082FF06C08091D0
:1009B000E1008B7F8093E10004D28091DA0080FF18
:1009C00018C08091D80080FF14C08091DA008E7F1B
:1009D0008093DA008091D90080FF8CC084E189BDCA
:1009E00086E189BD09B400FEFDCF81E08093150446
:1009F000F6DB8091E10080FF18C08091E20080FF6B
:100A000014C08091E2008E7F8093E2008091E2002A
:100A100080618093E2008091D80080628093D8004A
:100A200019BC85E080931504CCD18091E10084FF4E
:100A300028C08091E20084FF24C084E189BD86E162
:100A400089BD09B400FEFDCF8091D8008F7D8093D1
:100A5000D8008091E1008F7E8093E1008091E200D8
:100A60008F7E8093E2008091E20081608093E200BB
:100A700080911104882309F442C084E08093150416
:100A8000A0D18091E10083FF22C08091E20083FF2A
:100A90001EC08091E100877F8093E10082E0809317
:100AA0001504109211048091E1008E7F8093E10083
:100AB0008091E2008E7F8093E2008091E20080616D
:100AC0008093E20042E360E080E072DE7AD1FF9141
:100AD000EF91BF91AF919F918F917F916F915F91B6
:100AE0004F913F912F910F900BBE0F900FBE0F9023
:100AF0001F90189519BC1092150472DB7ACF809163
:100B0000E30087FD02C081E0B9CF83E0B7CF1F9338
:100B1000CF93DF93CDB7DEB7AA970FB6F894DEBFB9
:100B20000FBECDBF86E194E0FC0101962091F1005B
:100B3000208324E08E319207B9F75BDB8091E800D7
:100B400083FF10C08091160490911704953009F42A
:100B5000C2C000F5292F2D7F213009F489C09923C7
:100B600009F45EC08091E80083FF0AC08091E8002C
:100B7000877F8093E8008091EB0080628093EB0098
:100B8000AA960FB6F894DEBF0FBECDBFDF91CF910E
:100B90001F910895983009F4D5C0993009F4DFC049
:100BA000963001F780588230E8F6809118049091D1
:100BB00019048C3D23E0920709F0AFC083E08A83DB
:100BC0008AE289834FB7F894DE01139620E03EE075
:100BD00051E2E32FF0E050935700E49120FF03C06F
:100BE000E295EF703F5FEF708E2F90E0EA3008F4EF
:100BF00092C0C7968D939D932F5F243151F74FBFBD
:100C00008091E800877F8093E8006AE270E0CE017F
:100C1000019619DD8091E8008B778093E800A2CFE0
:100C2000803899F0823809F09DCF80911A048F7036
:100C3000873008F097CF8093E9008091EB0085FB27
:100C4000882780F91092E90006C0809112049091E3
:100C50001304911182609091E800977F9093E800CF
:100C60008093F1001092F1008091E8008E77A5C08A
:100C7000882309F492C0823009F074CF809118045F
:100C8000811196C080911A048F702FEF280F2630A3
:100C900008F068CF8093E9002091EB0020FF88C026
:100CA000933031F48091EB0080628093EB0080C040
:100CB0009091EB0090619093EB0021E030E001C057
:100CC000220F8A95EAF72093EA001092EA008091B9
:100CD000EB008860EACF811145CF109118041F778F
:100CE0008091E3008078812B8093E3008091E8007D
:100CF000877F8093E80090DD8091E80080FFFCCF43
:100D00008091E30080688093E30082E0111183E02A
:100D10008093150427CFC0966DCF60911A0470910F
:100D20001B04AE014F5F5F4FB1DBBC01892B09F49F
:100D300019CF8091E800877F8093E80089819A81AC
:100D4000DCDC68CF803809F00DCF8091E800877F28
:100D50008093E800809111048093F10085CF811188
:100D600001CF90911804923008F0FCCE8091E800F9
:100D7000877F8093E800909311044EDD80911104E9
:100D8000882311F084E005C08091E30087FDFACF4D
:100D900081E08093150425DAE5CE80911804813036
:100DA00009F0E0CE81E0933009F080E080931304F5
:100DB0001092E9008091E800877F8093E8002CDDA5
:100DC000D1CE0895CF9380911504882399F0C091D6
:100DD000E900CF709091EC00892F817090FD80E840
:100DE000C82B1092E9008091E80083FD90DECF705F
:0C0DF000C093E900CF910895F894FFCF64
:100DFC000E96000F05000E32000F05000E32000695
:100E0C0005000E32000A05000E0A000019000350FE
:100E1C0000011400020B00001400030A000114006E
:100E2C00020B000705000019000311000119000254
:100E3C000F00001900031100011900020F00001926
:100E4C0000031100011900020F000019000311002A
:100E5C00070500011900020F000019000311000121
:100E6C001900020F00001900031100011900020FF4
:100E7C0000001900031100011900020F0007050002
:100E8C00001900031100011900020F0000190003E2
:100E9C001100011900020F000019000311000119C3
:100EAC0000020F00001900031100070500011900D2
:100EBC00020F00001900031100011900020F0000BD
:100ECC001900031100011900020F00001900031191
:100EDC0000011900020F00070500001900031100A2
:100EEC00011900020F000019000311000119000282
:100EFC000F00001900031100011900020F00001966
:100F0C0000031100070500011900020F0000190071
:100F1C00031100011900020F000019000311000158
:100F2C001900020F00001900031100011900020F33
:100F3C0000070500001900031100011900020F0041
:100F4C00001900031100011900020F000019000321
:100F5C001100011900020F00001900031100070510
:100F6C0000011900020F0000190003110001190003
:100F7C00020F00001900031100011900020F0000FC
:100F8C001900031100011900020F000705000019D8
:100F9C0000031100011900020F00001900031100D9
:100FAC00011900020F0000190003110001190002C1
:100FBC000F00001900031100070500011900020FB2
:100FCC0000001900031100011900020F00001900A4
:100FDC00031100011900020F000019000311000198
:100FEC001900020F00070500001900031100011978
:100FFC0000020F00001900031100011900020F007C
:10100C00001900031100011900020F000019000360
:10101C001100070500011900020F0000190003114F
:10102C0000011900020F0000190003110001190042
:10103C00020F00001900031100011900020F00003B
:10104C0019000311000119000605000E8A0206059D
:10105C00000E96000405000E28000605000E19006F
:10106C000605000E32000605000E28000605000ECF
:10107C0082000605000A05000E32000105000E0A6A
:10108C00000F0A000E0F000019000E0500030800E7
:10109C000005000605000E4B000605000E64000658
:1010AC0005000E4B000605000E4B000605000E4B0E
:1010BC00000605000E4B000105000E0A000105009C
:1010CC000E0A000605000E64000605000E640006FC
:1010DC0005000E4B000105000E0A000F0A000E0F52
:0A10EC00000019000E0500030800C3
:00000001FF
